{
  "_format": "hh-sol-artifact-1",
  "contractName": "StockLedger",
  "sourceName": "contracts/StockLedger.sol",
  "abi": [
    {
      "anonymous": false,
      "inputs": [
        {
          "indexed": false,
          "internalType": "string",
          "name": "operationId",
          "type": "string"
        },
        {
          "indexed": false,
          "internalType": "string",
          "name": "opType",
          "type": "string"
        },
        {
          "indexed": false,
          "internalType": "uint256",
          "name": "timestamp",
          "type": "uint256"
        },
        {
          "indexed": true,
          "internalType": "address",
          "name": "actor",
          "type": "address"
        }
      ],
      "name": "OperationRecorded",
      "type": "event"
    },
    {
      "inputs": [
        {
          "internalType": "string",
          "name": "operationId",
          "type": "string"
        },
        {
          "internalType": "string",
          "name": "opType",
          "type": "string"
        },
        {
          "internalType": "uint256",
          "name": "timestamp",
          "type": "uint256"
        }
      ],
      "name": "recordOperation",
      "outputs": [],
      "stateMutability": "nonpayable",
      "type": "function"
    }
  ],
  "bytecode": "0x6080604052348015600f57600080fd5b506103c78061001f6000396000f3fe608060405234801561001057600080fd5b506004361061002b5760003560e01c806336706bd314610030575b600080fd5b61004a60048036038101906100459190610233565b61004c565b005b3373ffffffffffffffffffffffffffffffffffffffff167fddddc22f6420f10dc8782ba567cd13c2794aa8cd252b2ad34943ca1f0546f1698484846040516100969392919061034c565b60405180910390a2505050565b6000604051905090565b600080fd5b600080fd5b600080fd5b600080fd5b6000601f19601f8301169050919050565b7f4e487b7100000000000000000000000000000000000000000000000000000000600052604160045260246000fd5b61010a826100c1565b810181811067ffffffffffffffff82111715610129576101286100d2565b5b80604052505050565b600061013c6100a3565b90506101488282610101565b919050565b600067ffffffffffffffff821115610168576101676100d2565b5b610171826100c1565b9050602081019050919050565b82818337600083830152505050565b60006101a061019b8461014d565b610132565b9050828152602081018484840111156101bc576101bb6100bc565b5b6101c784828561017e565b509392505050565b600082601f8301126101e4576101e36100b7565b5b81356101f484826020860161018d565b91505092915050565b6000819050919050565b610210816101fd565b811461021b57600080fd5b50565b60008135905061022d81610207565b92915050565b60008060006060848603121561024c5761024b6100ad565b5b600084013567ffffffffffffffff81111561026a576102696100b2565b5b610276868287016101cf565b935050602084013567ffffffffffffffff811115610297576102966100b2565b5b6102a3868287016101cf565b92505060406102b48682870161021e565b9150509250925092565b600081519050919050565b600082825260208201905092915050565b60005b838110156102f85780820151818401526020810190506102dd565b60008484015250505050565b600061030f826102be565b61031981856102c9565b93506103298185602086016102da565b610332816100c1565b840191505092915050565b610346816101fd565b82525050565b600060608201905081810360008301526103668186610304565b9050818103602083015261037a8185610304565b9050610389604083018461033d565b94935050505056fea2646970667358221220c618b400828968410f655dcd2f6b023c2d0289042109d04536fe56af0102aa6664736f6c634300081c0033",
  "linkReferences": {},
  "deployedLinkReferences": {}
}